:020000040800F2
:10000000000600209D010008891A0008091900084F
:10001000851A0008A9020008791E000800000000E7
:10002000000000000000000000000000ED1A0008C1
:10003000E103000800000000E91A0008211B000885
:10004000B7010008B7010008B7010008B7010008B0
:10005000B7010008B7010008B7010008B7010008A0
:10006000B7010008B7010008B70100084503000800
:10007000B7010008B7010008B7010008B701000880
:10008000B7010008B7010008B7010008B701000870
:10009000AD020008BD020008B7010008B701000862
:1000A000B7010008B7010008B7010008B701000850
:1000B000B7010008B7010008B7010008B701000840
:1000C000B7010008B7010008B7010008B701000830
:1000D000B7010008B7010008B7010008B701000820
:1000E000B7010008B7010008B7010008B701000810
:1000F000B7010008B7010008B7010008B701000800
:10010000B7010008B7010008B7010008B7010008EF
:10011000B7010008E91B0008B7010008B701000893
:10012000B7010008B7010008B7010008B7010008CF
:10013000B7010008B7010008B7010008B7010008BF
:10014000CD020008B7010008B7010008B701000898
:10015000B7010008B7010008B7010008B70100089F
:10016000B7010008B7010008B7010008B70100088F
:10017000B7010008B7010008B7010008000000003F
:10018000B7010008B7010008DFF80CD000F07AF8DA
:1001900000480047451F0008000600200648804729
:1001A00006480047FEE7FEE7FEE7FEE7FEE7FEE75C
:1001B000FEE7FEE7FEE7FEE7CD1B00088901000829
:1001C0002DE9F05F0546002092469B46884606468C
:1001D000814640241BE0284641464746224600F01F
:1001E00041F853465A46C01A914110D31146184659
:1001F000224600F028F82D1A67EB01084F462246E8
:100200000120002100F01FF817EB00094E41201ECD
:10021000A4F10104DFDC484631462A464346BDE8E6
:10022000F09FD2B201E000F8012B491EFBD27047CB
:100230000022F6E710B513460A4604461946FFF7B2
:10024000F0FF204610BD202A04DB203A00FA02F11C
:10025000002070479140C2F1200320FA03F31943B4
:1002600090407047202A04DB203A21FA02F0002156
:10027000704721FA02F3D040C2F1200291400843B6
:1002800019467047064C074D06E0E06840F0010350
:1002900094E8070098471034AC42F6D3FFF778FF94
:1002A000FC1F00081C200008FEE7000080B540F29B
:1002B0004000C2F2000000F0FDF980BD80B540F2C0
:1002C0004000C2F2000000F0F5F980BD80B540F2B8
:1002D0007800C2F2000000F0EDF980BD10B582B0E8
:1002E00040F2280CC2F2000C4FF4007ECCF800E083
:1002F0004FF0000ECCE902EE40F2200E0824C2F2CC
:10030000000ECCF81040040A8EF80100080A8EF89E
:100310000200100A8EF80400180A8EF8060040F257
:1003200040008EF803108EF805208EF80730C2F2D8
:10033000000001AB614672468EF8004000F06AF89A
:1003400002B010BD80B540F2B000C2F2000000F073
:1003500065FC80BDD0F800C06FF00F024AF6AB23F9
:1003600052FA8CF2CAF6AA230146A2FB0330000916
:1003700005A31B5C40F2FF302CEA00005F2A88BF17
:100380000430C1E917037047000610160006101666
:100390008269816AB2F5005F06D06AB9022912D07B
:1003A000012914D0D1B90EE0032917D8DFE801F0F4
:1003B000020B020F0120704703293CBF0120704748
:1003C0001CBF00207047C06AC0F300607047C06A5D
:1003D000A0F1C070B0FA80F040097047002070476B
:1003E00070470000EFF3108072B600BFFEE7000018
:1003F000026B013A012A04D8006800F114020020BF
:1004000004E000F1340201204FF480211368194305
:100410001160704710B5D0F800C0D0F830E0AEF1F0
:10042000010EBEF1010FDCF808E00DD81EF0E05F10
:1004300010D0CEF3016EBEF1030F11D100F13401E3
:1004400001204FF4000233E000F1340101204FF4A9
:1004500080222DE000F1340101204FF4001227E04A
:10046000012000FA0EF01860886818B14B6840EA65
:10047000C30001E008684005D1E90334496903433A
:100480000CEB0E100129C0F88031C0F8844105D171
:1004900000F5C2710B6843F480730B605168C0F8BB
:1004A0008C11126800F5C071C0F88821002001226B
:1004B0000B681A430A6010BDB0B5026B013A012AFD
:1004C0002FD846F20060C4F20000026842F0010238
:1004D0000260026822F47C520260D1F814E0CC6918
:1004E0004A6A0368012C43EA022202600EF01F02EE
:1004F0004FF0010303FA02F2C3696FEA020C23EA28
:100500000203C36113D02CBBC36803EA0C03C360AE
:10051000CB688C8844EA034300EBCE0423640B468B
:1005200011E0416B41F4802141630120B0BDC368FB
:100530001343C3600B688C8844EA034300EBCE048A
:10054000236401F10C038C681B8843EA044300EB2D
:10055000CE04636443688D6943EA0204D1F810E075
:10056000096A002D08BF03EA0C0444604369BEF128
:10057000000F43EA020408BF03EA0C0401294461A6
:1005800002D1C1691143C161016821F0010101601B
:100590000020B0BD7047000010B5046B013C012C79
:1005A0000CD8D0F800C079B1DCF81040A4070FD106
:1005B00000F1340101204FF4001270E000F1340129
:1005C00001204FF480226AE0DCF80C40A4076AD0D6
:1005D000046804EB011CDCF8B0410CF5D87E14F083
:1005E00004049460DCF8B04119BFE4085460640D61
:1005F0001460DEF80040002904F00204D460DCF846
:10060000B44104F00F041461DCF8B441C4F30724CE
:100610009461DCF8B4414FEA14445461DCF8B82129
:100620001A70026802EB0112D2F8B8214FEA1222C6
:100630005A70026802EB0112D2F8B8214FEA124256
:100640009A70026802EB0112D2F8B8214FEA1262E6
:10065000DA70026802EB0112D2F8BC211A7102684A
:1006600002EB0112D2F8BC214FEA12225A71026841
:1006700002EB0112D2F8BC214FEA12429A710268D1
:1006800002EB0112D2F8BC214FEA1262DA71006863
:1006900014BF00F1100100F10C01002020220B68B2
:1006A0001A430A6010BD00F1340101204FF400121A
:1006B000F5E700002DE9F04F81B004460068466977
:1006C000D0F804908768D0F80CB0D0F810A0D0F81B
:1006D0001880F10703D1002530071CD423E0F90767
:1006E00010D00121BA07816009D4780700F1AA80EF
:1006F000380700F1B080204600F072FA02E0204690
:1007000000F070FA0025F80500F18480F80300F18C
:10071000AA80300707D51BF0100004D0206845F4EC
:1007200000751021C160700708D51BF0080005D0C6
:1007300020680821C160204600F0F0F9B00706D516
:100740002068C068800702D0204600F0E9F97006F2
:1007500007D51AF0100004D0206845F480651021F8
:100760000161B00608D51AF0080005D020680821FC
:100770000161204600F004FAF00606D52068006901
:10078000800702D0204600F0FDF9B00308D519F02B
:10079000100005D0206810214160204600F0F4F9D7
:1007A000F00308D519F0080005D020680821416041
:1007B000204600F021FA300440F18F805FEA497052
:1007C00040F1888006F4807008EA102028435FEA30
:1007D0008871014648BF41F00201B20558BF014689
:1007E0005FEA48700D4648BF45F00405700558BFE4
:1007F0000D4630056ED518F070006BD0103800092A
:10080000052862D8DFE800F0035356595C5F45F0D5
:1008100008055AE020684FF48071BA0581600AD457
:10082000780512D4380519D4204600F0DDF9F80314
:100830007FF56FAF17E0204600F0D8F9F8037FF599
:1008400068AF10E04FF400655DE705F50055F8036B
:100850007FF55FAF07E04FF4805554E705F580451D
:10086000F8037FF556AF20684FF48031BA038160FA
:100870000AD478030FD4380313D4204600F0B8F913
:1008800030073FF548AF4EE7204600F0B3F9300798
:100890003FF541AF47E705F5004530073FF53BAF72
:1008A00041E705F5803530073FF535AF3BE745F0CB
:1008B00010050AE045F0200507E045F0400504E09A
:1008C00045F0800501E045F480752068816921F0DC
:1008D000700181612068042141602DB1606B284363
:1008E00060632046FFF756FE01B0BDE8F08F0000C0
:1008F000B0B5B8B10446006B10B9204600F06CF8F2
:100900002068016821F00201016000F089FB0546C2
:1009100020684168890707D500F082FB401B0B283F
:10092000F6D312E00120B0BD016841F00101016081
:1009300000F076FB054600BF20684168C9070CD16E
:1009400000F06EFB401B0B28F6D3606B052140F4D2
:100950000030606301202163B0BDA16902680129F4
:1009600022F0800208BF80320260E169026801293A
:1009700022F0400208BF40320260216A0268012969
:1009800022F0200208BF20320260616A0268012959
:1009900022F0100218BF10320260A16A0268012919
:1009A00022F0080208BF08320260E16A02680129E9
:1009B00022F0040208BF04320260251D2ECD1A4326
:1009C00063692A431A4301391143C161002001219F
:1009D00060632163B0BD000010B586B00021CDE991
:1009E0000411CDE90211006846F60002C4F20002CB
:1009F0009042019146D046F20041C4F20001884283
:100A000040F0898040F21801C2F200010A6843F602
:100A10004000C4F20200531C0B6052B90021009147
:100A2000016841F000710160016801F000710091FE
:100A300000990021009150F8102C42F0080240F873
:100A4000102C50F8100C022200F0080000900098C2
:100A500003200190CDE9022104900920059040F285
:100A60000040C4F2020000F5006001A900F00AFA9B
:100A700014200021002200F04BFB142000F044FB66
:100A8000152440E043F64000C4F2020000910168E2
:100A900041F080610160016801F08061009100997E
:100AA00040F21801C2F200010A68531C0B6052B9EF
:100AB00000210091016841F000710160016801F0BE
:100AC0000071009100990021009150F8102C42F023
:100AD000020240F8102C50F8100C00F002000090B8
:100AE00000984FF4405001900220CDE9020103200C
:100AF00004900920059040F20040C4F2020001A9D0
:100B000000F0C0F9402420460021002200F000FB44
:100B1000204600F0F9FA06B010BD00007047000052
:100B200080B58AB003AA01AB0021FFF735FD039819
:100B3000A0F20121062920D80138C1B2BDF8042055
:100B4000890051FA80F040F25C1112BAC2F2000141
:100B5000120C31F8103021F8102001EB4000BDF8E4
:100B60000610BDF8082009BA090C418011BA9DF899
:100B70000A20090C0381818082710AB080BD0000C7
:100B8000704700007047000070470000B0B5044691
:100B9000006B01281BD1022020632068016821F02E
:100BA0000101016000F03CFA054600BF2068406882
:100BB000C00712D000F034FA401B0B28F6D3606B4C
:100BC00040F400306063052020630120B0BD606BFD
:100BD00040F4002060630120B0BD00206063B0BD20
:100BE0007047000070470000704700007047000029
:100BF000704700007047000070470000816B0229B9
:100C000008D1052181630068016821F001010160BC
:100C1000002070478021816501207047F0B581B0C8
:100C200004460020009040F20C00C2F2000002686E
:100C3000D4E9176048F2B51337680821C1F64E337E
:100C400081403942A2FB03250CD0226813685B0760
:100C500008D5136823F004031360B160A16D41F05F
:100C60000101A16501218140394208D02268526901
:100C7000120604D5B160A16D41F00201A165042105
:100C80008140394208D022681268920704D5B160C9
:100C9000A16D41F00401A16510218140394215D0B8
:100CA00020680268120711D5B1600268016852031A
:100CB00006D4C90506D4016821F00801016001E0ED
:100CC00008033CD4616C09B120468847216E20207E
:100CD00000FA01F23A423ED020680368DB063AD5BA
:100CE000B260A36B0268052B1BD122F016020260D2
:100CF000426922F080024261626C0AB9E26C1AB168
:100D0000026822F0080202603F208840B0600020A4
:100D100060630120A063616DD1B32046884701B0B4
:100D2000F0BD016852030ED4C90510D4016821F04A
:100D300010010160002060630120A06307E0E16C06
:100D40000029C1D1C2E7080301D4A16C00E0216CE5
:100D500009B120468847A06DD0B1A06DC00713D05F
:100D60000520A0632068A90A026822F0010202603F
:100D7000009A01328A42009202D80268D207F7D163
:100D8000002060630120A063216D09B120468847DF
:100D900001B0F0BD2DE9F041044600F041F9B4B1D5
:100DA0000546002060630220A0632068016821F0EE
:100DB0000101016026683068C0070BD000F030F9EF
:100DC000401B0528F6D903212022032042E0012000
:100DD000BDE8F081306848F23F01CFF21001251DD7
:100DE00000EA010C2ECDD4E9050E41EA0C011143B5
:100DF00019432943D4E90778084340EA0E01606AA1
:100E00003943042841EA080103D1D4E90B231143F3
:100E1000194331607169042821F0070141EA000596
:100E20000CD1D4E90A1045EA010538B12046FFF794
:100E3000AFFA18B10121402201200BE02046756174
:100E4000FFF788FA216E3F2202FA01F18160012149
:100E500000220020A265A163BDE8F081B0B5044680
:100E600000F0DEF8054640F21000C2F20000006813
:100E7000611C18BF044400BF00F0D2F8401BA04220
:100E8000FAD3B0BD2DE9F04F83B000F13E4202F13C
:100E9000FF7243F6004E4FEAB22241F60047C4F219
:100EA000010E0192C4F2020708224FF0010B002547
:100EB0004FF000084FF00009B84208BF0722009227
:100EC0000AE000BF09F1010908F10408B9F1100FA7
:100ED00005F1020500F0A1800F680BFA09F417EA8A
:100EE000040CEFD0D1F804A0BAF1120F15D80BFA08
:100EF0000AF717F0061F10D087680322CE68AA40B1
:100F000027EA0202AE40324382604268A243CAF33B
:100F1000001404FA09F422434260C26803238E6875
:100F200003FA05F4A2436FEA040B06FA05F4224320
:100F30004AF01004122CC2600FD16FF0030202EAD3
:100F40005902024408F01C060F23146A03FA06F73C
:100F50000B69BC43B3402343136202684B6802EA47
:100F60000B0203F00304AC402243DB004FF0010B03
:100F70000260A7D5002243F644030292C4F20203A2
:100F80001A684FF6084A42F480421A601A68CFF68F
:100F9000FF7A02F480420292029A29F0030272441C
:100FA00052F80A3008F00C040F26A640019FB34304
:100FB000009E072F38BF3E4606FA04F4234342F84A
:100FC0000A30DEF800204B6842EA0C04DE0358BF0A
:100FD00022EA0C04CEF80040DEF804209E0342EA28
:100FE0000C0458BF22EA0C04CEF80440DEF80820B6
:100FF000DE0242EA0C0458BF22EA0C04CEF8084094
:1010000043F60C44C4F2010422689B0242EA0C033A
:1010100058BF22EA0C03236054E703B0BDE8F08F09
:1010200040F2F810C2F200000068704740F2100071
:1010300040F2F811C2F20000C2F2000100680A6832
:10104000104408607047000080B543F60040C4F2C9
:101050000200016841F400710160016841F480619F
:101060000160016841F480710160032000F060F8C4
:10107000002000F005F800F02BF8002080BD0000F3
:10108000B0B540F21002C2F2000240F20C01126848
:10109000C2F200014FF47A730968B3FBF2F204461E
:1010A000B1FBF2F1084600F0F1FA0F2C4FF0010508
:1010B0000CD858B94FF0FF3021460022002500F02F
:1010C00027F840F21400C2F2000004602846B0BDC8
:1010D00082B0002043F640010190C4F202014A6848
:1010E00042F480424A604A6802F480420192019AC6
:1010F0000090086840F080500860086800F0805058
:101100000090009802B0704780B500F0B7FE80BD37
:1011100070B514460D46064600F0C0FE294622462C
:1011200000F0B4FC0146304600F0C0FE70BD000087
:1011300080B500F0CDFE80BD2DE9F041002800F023
:101140008B8043F60808C4F202080446D8F8F80376
:101150000D4600F00F00884207D288F8F853D8F8FF
:10116000F80300F00F00A84276D12068810717D558
:10117000410705D5D8F8001041F4E051C8F8001037
:10118000010705D5D8F8001041F46041C8F80010F7
:10119000D8F80010A26821F0F0011143C8F800103F
:1011A000C0073FD1D8F8F80300F00F00A84207D9D4
:1011B00088F8F853D8F8F80300F00F00A8424BD194
:1011C0002068410707D5D8F80010E26821F4E05103
:1011D0001143C8F80010000708D5D8F800002169AD
:1011E00020F4604040EAC100C8F8000000F07EF83A
:1011F000D8F8001041F6E272C1F30311C0F6000204
:10120000515C40F20C0220FA01F140F21400C2F2EB
:1012100000000068C2F200021160FFF731FF0020F9
:10122000BDE8F0816068811E022907D258F8081CC9
:1012300089015CBF0120BDE8F08110E0012807D1E1
:1012400058F8081C89035CBF0120BDE8F08106E066
:1012500058F8081C890702D40120BDE8F081D8F8AD
:10126000001021F003010843C8F80000FFF7D8FE82
:10127000064641F2883700BFD8F80000616800F0E8
:101280000C00B0EB810F8DD0FFF7CAFE801BB84277
:10129000F2D90320BDE8F08140F20C00C2F2000058
:1012A0000068704780B5FFF7F7FF43F60801C4F206
:1012B0000201096841F6F272C1F38221C0F6000210
:1012C000515CC84080BD000080B5FFF7E5FF43F6E4
:1012D0000801C4F20201096841F6F272C1F3423119
:1012E000C0F60002515CC84080BD000010B543F656
:1012F0000404C4F20204606800F00C0142F20040F1
:101300000829C0F2F40007D0042918BF10BD41F22B
:101310000020C0F27A0010BD216801F03F02216870
:1013200023684902C3F3881105D4A1FB00010023FF
:10133000FEF746FF06E041F20020C0F27A00484383
:10134000B0FBF2F021680222C1F3014102EB41013E
:10135000B0FBF1F010BD00002DE9F04182B0002893
:1013600000F098800446007843F60006C007C4F2F7
:10137000020643D0B06800F00C00042805D13068A4
:1013800080033BD56068C8BB84E0B06800F00C0007
:10139000082802D170684002F1D46568B5F5A02F25
:1013A0000AD0B5F5803F0BD0306820F48030306033
:1013B000306820F4802006E0306840F480203060FF
:1013C000306840F480303060FFF72AFE002D05467B
:1013D00011D000BF3068800310D4FFF721FE401BFE
:1013E0006428F7D918E100BFFFF71AFE401B6428F4
:1013F0004FF003004BD830688003F5D42078800785
:1014000019D5B06810F00C0F08D0B06800F00C00CF
:10141000082840F08080706840027CD430688007E3
:1014200002D5E068012835D13068216920F0F80044
:1014300040EAC1003060207800072FD420784007B0
:1014400043D4A56915B3B06800F00C00082840F03B
:101450009580012D1ED07068E16900F480028A42F7
:1014600018D1216A00F03F028A4213D147F6C071B9
:10147000626A014091420DD1A16A00F440328A4271
:1014800008D1E16A00F07060884203D1002002B008
:10149000BDE8F081012002B0BDE8F081606900285C
:1014A00040F20000C4F2472057D00121C0F8801E4E
:1014B000FFF7B6FD054600BF706F8007BED4FFF78B
:1014C000AFFD401B0228F7D9A6E0306C10F0805821
:1014D0000AD100200190306C40F080503064306CB4
:1014E00000F080500190019847F20007C4F2000715
:1014F0003868C00524D4386840F480703860FFF73D
:101500008FFD05463868C0051AD4FFF789FD401BDA
:101510000228F7D980E0E068002851D00020C4F20A
:10152000472001210160FFF77BFD054630688007F9
:101530003FF57AAFFFF774FD401B0228F6D96BE048
:10154000A568052D50D0012D52D0306F20F001003C
:101550003067306F20F004004DE00021C0F8801E9D
:10156000FFF75EFD054600BF706F80077FF566AF31
:10157000FFF756FD401B0228F6D94DE00027C4F2C4
:10158000472700203866FFF74BFD022D05460BD19B
:101590003068800158D5FFF743FD401B02284FF00B
:1015A0000300F5D973E700BF306880017FF56EAFA7
:1015B000FFF736FD401B02284FF00300F4D966E721
:1015C0000020C4F2472000210160FFF729FD0546F5
:1015D000306880077FF52FAFFFF722FD401B022800
:1015E0004FF00300F4D952E7306F40F00400306749
:1015F000306F40F001003067FFF712FD002D054607
:1016000041F2883714D000BF306F800713D4FFF742
:1016100007FD401BB842F7D9032002B0BDE8F081B6
:10162000FFF7FEFC401BB8424FF003003FF62FAF20
:10163000306F8007F4D4B8F1000F7FF402AF306C44
:1016400020F080503064FCE604F11C052FCD0843E7
:1016500040EA8210D9034FF6FF729143A1F5803121
:1016600040EA05600843706001203866FFF7D8FC47
:10167000044600BF306880013FF508AFFFF7D0FC9B
:10168000001B02284FF00300F4D900E780B500F0FA
:101690002FFA80BD7047000010B50268044610683C
:1016A000D168536900F02F02202A01F0200204D1F2
:1016B0001AB1204600F0C0FA10BD5FEA007C1EBFE0
:1016C00003F0010E01F4907313EB0E030DD10840EB
:1016D000010606D4400658BF10BD204600F0A0FA0F
:1016E00010BD204600F09CFB10BDC30718BF11F4CD
:1016F000807302D1430706D40CE0636C43F001030E
:101700006364430706D5BEF1000F03D0636C43F05A
:1017100002036364830706D5BEF1000F03D0636C38
:1017200043F004036364BCF1000F06D552EA0E02D5
:1017300003D0626C42F008026264626C002ACFD06F
:101740000840800602D5204600F076FA20684069FD
:10175000616C00F0400001F0080140181DD02046E7
:1017600000F052FA20684169490612D5416921F01A
:1017700040014161606B60B141F6F931C0F6000192
:101780004165FFF73BFA0028AAD0606B416D88479E
:1017900010BD2046FFF77EFF10BD2046FFF77AFF01
:1017A0000020606410BD0000002804BF01207047C5
:1017B00010B50446C06B20B90020A063204600F09D
:1017C0001DF82420E0632068C16821F40051C16045
:1017D000204600F06FFA2068016921F49041016110
:1017E000416921F02A014161C16841F40051C160A1
:1017F000002020216064E163216410BD2DE9F04FD9
:1018000087B000260696CDE90466044645F2000737
:101810000068C4F20007B8420396029602D007B0EF
:10182000BDE8F08F43F630000196C4F20200016972
:1018300002AD41F48011016101694FF0020801F429
:10184000801101910199019601684FF0010941F061
:101850000401016001684FF0030A01F004010191E5
:101860000199019601684FF0080B41F008010160F1
:101870000068294600F00800019001984FF480505C
:10188000029007F5DC30CDF80C80CDF81090CDF843
:1018900014A0CDF818B0FFF7F5FA042002A981E8EA
:1018A000010F07F5DE302946FFF7ECFA40F2B005EC
:1018B00046F21000C2F20005C4F202004FF00061CF
:1018C0004FF4806285E843002846C5E90362C5E914
:1018D0000566C5E907666E62FFF75CFA002818BF67
:1018E000FEF780FD3520002100226563EC63FFF7E1
:1018F0000FFC3520FFF708FC07B0BDE8F08F0000B3
:101900007047000070470000FEE7000080B540F21D
:10191000400046F20041C2F20000C4F2000103227E
:10192000002380E80E0000F10C014FF4102C4FF45E
:10193000001E81E80850C0E90633C0E90833C0E959
:101940000A33FEF7D5FF002818BFFEF74BFD80BD18
:1019500080B540F2780046F60001C2F20000C4F201
:1019600000010322002380E80E0000F10C014FF477
:10197000102C4FF4001E81E80850C0E90633C0E97E
:101980000833C0E90A33FEF7B3FF002818BFFEF79B
:1019900029FD80BD80B582B00020019043F6300063
:1019A000C4F202000168002241F4001101600068E5
:1019B000002100F40010019001980B20FFF7A8FB14
:1019C0000B20FFF7A1FB02B080BD000081B0002119
:1019D00043F630000091C4F20200026842F0800237
:1019E0000260026802F080020092009A0091026890
:1019F00042F002020260026802F002020092009AC3
:101A00000091026842F001020260026802F00102E5
:101A10000092009A0091026842F00402026002689B
:101A200002F004020092009A0091016841F008015E
:101A30000160006800F008000090009801B0704755
:101A400080B540F2141045F20001C2F20000C4F269
:101A5000000148F2A062C0F20102002380E80E00FB
:101A600000F10C014FF4806C4FF00C0E81E808502F
:101A7000C0E90633FFF798FE002818BFFEF7B2FC56
:101A800080BD0000FEE70000FEE7000000F0070058
:101A900080F00703042B28BF04234FF0FF3C0338DA
:101AA0000CFA03F338BF0020994381400CFA00F090
:101AB00022EA000008437047002818BF002A00D11E
:101AC000704780B5136801704360536828218360B4
:101AD000926880ED040AC260C0ED050A2030FEF76E
:101AE000A7FBBDE8804070477047000070470000CA
:101AF000B0B501380024B4EB106F1CBF0120B0BD9D
:101B00004EF21005CEF2000568604FF0FF300F2155
:101B100000F0CCF90720AC6028602046B0BD000082
:101B200080B5FFF783FA80BD70B592B006AC204651
:101B30003021FEF77DFB002543F640000595CDE9F9
:101B40000355CDE901550095C4F202000168022653
:101B500041F080510160006800F0805000900098D2
:101B600047F200000095C4F20000016841F4804192
:101B700001600068A82100F48040009000980120D6
:101B800006904FF4803007904FF480000D900420B1
:101B90000C960E90CDE90F1611902046FFF7DCFB56
:101BA00088B90F20CDE901064FF4A05004904FF4FE
:101BB0008050059001A805210395FFF7BDFA002884
:101BC00004BF12B070BDFEF70DFC00004EF6885049
:101BD000CEF20000016841F4700101604FF0006135
:101BE00040F8801C7047000080B540F21410C2F22B
:101BF0000000FFF751FD80BD80B5C06B0021C1859D
:101C0000C184FFF747FD80BD0168CA6822F4907265
:101C1000CA604A6922F001024A61202101647047CA
:101C200080B50168CA6822F04002CA602021C16301
:101C3000FFF768FE80BD000080B5016C222937D116
:101C40008168B1F5805F0AD102680369816A5268D0
:101C50008BB1836AD2B20A80591C816211E001689B
:101C600002694968002A826A18BF01F07F01531C8B
:101C70008362117005E0836A6FF35F220A80991C0A
:101C80008162C18D01390A04C18518BF80BD016818
:101C9000CA6822F02002CA60CA6822F48072CA6050
:101CA0004A6922F001024A6120210164FFF728FEFF
:101CB00080BD0000B0B50546006805F108030ECBF5
:101CC0000469194324F44054224302616A69EB69B0
:101CD0001143C26849F20C641943A2431143C16025
:101CE0004169AA6921F440711143416141F2004107
:101CF000B3F5004F40F48060C4F2010124D1884262
:101D000046D1FFF7E1FA6B681921A0FB01015A00E7
:101D1000DB0FFEF755FA48F21F51C5F2EB11A0FB9D
:101D200001235A096FF0630302FB0300322303EB24
:101D3000C000A0FB01014FF4F87000EA111000EBA5
:101D40000210C1F3421167E0884244D1FFF7BCFAA8
:101D50006B681921A0FB01019A009B0FFEF730FA76
:101D600048F21F51C5F2EB11A0FB01235A096FF095
:101D7000630302FB0300322303EB0010A0FB01010D
:101D8000F02000EA511000EB0210C1F3431143E0D0
:101D9000FFF788FA6B681921A0FB01015A00DB0FDD
:101DA000FEF70EFA48F21F51C5F2EB11A0FB01231A
:101DB0005A096FF0630302FB0300322303EBC000F8
:101DC000A0FB01014FF4F87000EA111000EB0210C3
:101DD000C1F3421120E0FFF765FA6B681921A0FBFF
:101DE00001019A009B0FFEF7EBF948F21F51C5F273
:101DF000EB11A0FB01235A096FF0630302FB030000
:101E0000322303EB0010A0FB0101F02000EA511087
:101E100000EB0210C1F343112A6808439060B0BD83
:101E2000C16B212927D18168B1F5805F0ED1016A8C
:101E3000D0F800C00B8802696FF35F23002ACCF84A
:101E4000043014BF01310231016205E0016A026809
:101E50004B1C036209785160C18C01390A04C184AA
:101E600018BF70470068C16821F08001C160C16877
:101E700041F04001C1607047FEE70000002848BF04
:101E8000704700F01F01012202FA01F14EF2001228
:101E90004009CEF2000242F8201070474EF60C5076
:101EA000CEF200000068C0F3022070474EF61453D3
:101EB00000F00F02CEF2000309011A4400F1604362
:101EC000B0F1FF3FC8BF03F56442117070470000D6
:101ED0004EF60C51CEF200010A684FF6FF031A408D
:101EE00060F30A2242F0806040F0FD7008607047A5
:101EF00010B58AB040F2400401200021C2F2000473
:101F00000890CDE90610CDE90011CDE90211CDE927
:101F1000041169462046FEF7CFFA2046FEF736FE4A
:101F200020460221FEF764FA0AB010BD00F003005B
:101F300040F25C1100EB8000C2F2000101EB4000B6
:101F400070470000FFF780F8FFF7EEFDFFF73EFD5A
:101F5000FFF720FDFFF7DAFCFFF772FDFFF7F8FC53
:101F6000FFF7C6FF40F2B01040F200029FED130AE7
:101F7000DFED130AC2F20000C2F200020021FFF7F7
:101F80009BFD40F2A414C2F2000400BF0020FFF742
:101F9000CDFF01684268C4E9001200892081012058
:101FA000FEF75CFF4FF49670002100220023FEF73D
:101FB00095F90120FEF752FFE8E700BF00007A46DE
:101FC00000007A4502E008C8121F08C1002AFAD1B1
:101FD00070477047002001E001C1121F002AFBD1A9
:101FE0007047000000000000000001020304060723
:101FF000080900000000010203040000202000087E
:102000000000002018000000C41F0008382000084D
:1020100018000020E8050000D41F000800000000A0
:102020000000B84100000040000000000024F4005F
:08203000010000001000000097
:040000050800018965
:00000001FF
